{
  "contractName": "ExerciseC6C",
  "abi": [
    {
      "inputs": [],
      "payable": false,
      "stateMutability": "nonpayable",
      "type": "constructor"
    },
    {
      "constant": true,
      "inputs": [
        {
          "name": "id",
          "type": "string"
        }
      ],
      "name": "isEmployeeRegistered",
      "outputs": [
        {
          "name": "",
          "type": "bool"
        }
      ],
      "payable": false,
      "stateMutability": "view",
      "type": "function"
    },
    {
      "constant": false,
      "inputs": [
        {
          "name": "id",
          "type": "string"
        },
        {
          "name": "isAdmin",
          "type": "bool"
        },
        {
          "name": "wallet",
          "type": "address"
        }
      ],
      "name": "registerEmployee",
      "outputs": [],
      "payable": false,
      "stateMutability": "nonpayable",
      "type": "function"
    },
    {
      "constant": true,
      "inputs": [
        {
          "name": "id",
          "type": "string"
        }
      ],
      "name": "getEmployeeBonus",
      "outputs": [
        {
          "name": "",
          "type": "uint256"
        }
      ],
      "payable": false,
      "stateMutability": "view",
      "type": "function"
    },
    {
      "constant": false,
      "inputs": [
        {
          "name": "id",
          "type": "string"
        },
        {
          "name": "sales",
          "type": "uint256"
        },
        {
          "name": "bonus",
          "type": "uint256"
        }
      ],
      "name": "updateEmployee",
      "outputs": [],
      "payable": false,
      "stateMutability": "nonpayable",
      "type": "function"
    }
  ],
  "bytecode": "0x608060405234801561001057600080fd5b50336000806101000a81548173ffffffffffffffffffffffffffffffffffffffff021916908373ffffffffffffffffffffffffffffffffffffffff160217905550610833806100606000396000f300608060405260043610610062576000357c0100000000000000000000000000000000000000000000000000000000900463ffffffff168063228f25dc1461006757806356b35dd5146100ce578063ea20f20a1461011d578063f6f2dfcb14610170575b600080fd5b34801561007357600080fd5b506100cc600480360381019080803590602001908201803590602001919091929391929390803515159060200190929190803573ffffffffffffffffffffffffffffffffffffffff1690602001909291905050506101bf565b005b3480156100da57600080fd5b5061011b6004803603810190808035906020019082018035906020019190919293919293908035906020019092919080359060200190929190505050610491565b005b34801561012957600080fd5b5061015660048036038101908080359060200190820180359060200191909192939192939050505061060f565b604051808215151515815260200191505060405180910390f35b34801561017c57600080fd5b506101a960048036038101908080359060200190820180359060200191909192939192939050505061064f565b6040518082815260200191505060405180910390f35b6000809054906101000a900473ffffffffffffffffffffffffffffffffffffffff1673ffffffffffffffffffffffffffffffffffffffff163373ffffffffffffffffffffffffffffffffffffffff16141515610283576040517f08c379a000000000000000000000000000000000000000000000000000000000815260040180806020018281038252601c8152602001807f43616c6c6572206973206e6f7420636f6e7472616374206f776e65720000000081525060200191505060405180910390fd5b6001848460405180838380828437820191505092505050908152602001604051809103902060010160009054906101000a900460ff1615151561032e576040517f08c379a000000000000000000000000000000000000000000000000000000000815260040180806020018281038252601f8152602001807f456d706c6f79656520697320616c726561647920726567697374657265642e0081525060200191505060405180910390fd5b60c06040519081016040528085858080601f0160208091040260200160405190810160405280939291908181526020018383808284378201915050505050508152602001600115158152602001831515815260200160008152602001600081526020018273ffffffffffffffffffffffffffffffffffffffff168152506001858560405180838380828437820191505092505050908152602001604051809103902060008201518160000190805190602001906103ec929190610762565b5060208201518160010160006101000a81548160ff02191690831515021790555060408201518160010160016101000a81548160ff021916908315150217905550606082015181600201556080820151816003015560a08201518160040160006101000a81548173ffffffffffffffffffffffffffffffffffffffff021916908373ffffffffffffffffffffffffffffffffffffffff16021790555090505050505050565b6001848460405180838380828437820191505092505050908152602001604051809103902060010160009054906101000a900460ff16151561053b576040517f08c379a000000000000000000000000000000000000000000000000000000000815260040180806020018281038252601b8152602001807f456d706c6f796565206973206e6f7420726567697374657265642e000000000081525060200191505060405180910390fd5b61057682600186866040518083838082843782019150509250505090815260200160405180910390206002015461074690919063ffffffff16565b60018585604051808383808284378201915050925050509081526020016040518091039020600201819055506105dd81600186866040518083838082843782019150509250505090815260200160405180910390206003015461074690919063ffffffff16565b600185856040518083838082843782019150509250505090815260200160405180910390206003018190555050505050565b60006001838360405180838380828437820191505092505050908152602001604051809103902060010160009054906101000a900460ff16905092915050565b60008060009054906101000a900473ffffffffffffffffffffffffffffffffffffffff1673ffffffffffffffffffffffffffffffffffffffff163373ffffffffffffffffffffffffffffffffffffffff16141515610715576040517f08c379a000000000000000000000000000000000000000000000000000000000815260040180806020018281038252601c8152602001807f43616c6c6572206973206e6f7420636f6e7472616374206f776e65720000000081525060200191505060405180910390fd5b6001838360405180838380828437820191505092505050908152602001604051809103902060030154905092915050565b6000818301905082811015151561075957fe5b80905092915050565b828054600181600116156101000203166002900490600052602060002090601f016020900481019282601f106107a357805160ff19168380011785556107d1565b828001600101855582156107d1579182015b828111156107d05782518255916020019190600101906107b5565b5b5090506107de91906107e2565b5090565b61080491905b808211156108005760008160009055506001016107e8565b5090565b905600a165627a7a7230582035c8ef5990937948bb2dcfad7eac1caab3016a552ddbd3b6b3b57473d2403c1f0029",
  "source": "pragma solidity ^0.4.24;\r\n\r\n// It's important to avoid vulnerabilities due to numeric overflow bugs\r\n// OpenZeppelin's SafeMath library, when used correctly, protects agains such bugs\r\n// More info: https://www.nccgroup.trust/us/about-us/newsroom-and-events/blog/2018/november/smart-contract-insecurity-bad-arithmetic/\r\n\r\nimport \"../node_modules/openzeppelin-solidity/contracts/math/SafeMath.sol\";\r\ncontract ExerciseC6C {\r\n    using SafeMath for uint256; // Allow SafeMath functions to be called for all uint256 types (similar to \"prototype\" in Javascript)\r\n\r\n    /********************************************************************************************/\r\n    /*                                       DATA VARIABLES                                     */\r\n    /********************************************************************************************/\r\n\r\n    struct Profile {\r\n        string id;\r\n        bool isRegistered;\r\n        bool isAdmin;\r\n        uint256 sales;\r\n        uint256 bonus;\r\n        address wallet;\r\n    }\r\n\r\n    address private contractOwner;              // Account used to deploy contract\r\n    mapping(string => Profile) employees;      // Mapping for storing employees\r\n\r\n    /********************************************************************************************/\r\n    /*                                       EVENT DEFINITIONS                                  */\r\n    /********************************************************************************************/\r\n\r\n    // No events\r\n\r\n    /**\r\n    * @dev Constructor\r\n    *      The deploying account becomes contractOwner\r\n    */\r\n    constructor\r\n                                (\r\n                                ) \r\n                                public \r\n    {\r\n        contractOwner = msg.sender;\r\n    }\r\n\r\n    /********************************************************************************************/\r\n    /*                                       FUNCTION MODIFIERS                                 */\r\n    /********************************************************************************************/\r\n\r\n    // Modifiers help avoid duplication of code. They are typically used to validate something\r\n    // before a function is allowed to be executed.\r\n\r\n    /**\r\n    * @dev Modifier that requires the \"ContractOwner\" account to be the function caller\r\n    */\r\n    modifier requireContractOwner()\r\n    {\r\n        require(msg.sender == contractOwner, \"Caller is not contract owner\");\r\n        _;\r\n    }\r\n\r\n    /********************************************************************************************/\r\n    /*                                       UTILITY FUNCTIONS                                  */\r\n    /********************************************************************************************/\r\n\r\n   /**\r\n    * @dev Check if an employee is registered\r\n    *\r\n    * @return A bool that indicates if the employee is registered\r\n    */   \r\n    function isEmployeeRegistered\r\n                            (\r\n                                string id\r\n                            )\r\n                            external\r\n                            view\r\n                            returns(bool)\r\n    {\r\n        return employees[id].isRegistered;\r\n    }\r\n\r\n    /********************************************************************************************/\r\n    /*                                     SMART CONTRACT FUNCTIONS                             */\r\n    /********************************************************************************************/\r\n\r\n    function registerEmployee\r\n                                (\r\n                                    string id,\r\n                                    bool isAdmin,\r\n                                    address wallet\r\n                                )\r\n                                external\r\n                                requireContractOwner\r\n    {\r\n        require(!employees[id].isRegistered, \"Employee is already registered.\");\r\n\r\n        employees[id] = Profile({\r\n                                        id: id,\r\n                                        isRegistered: true,\r\n                                        isAdmin: isAdmin,\r\n                                        sales: 0,\r\n                                        bonus: 0,\r\n                                        wallet: wallet\r\n                                });\r\n    }\r\n\r\n    function getEmployeeBonus\r\n                            (\r\n                                string id\r\n                            )\r\n                            external\r\n                            view\r\n                            requireContractOwner\r\n                            returns(uint256)\r\n    {\r\n        return employees[id].bonus;\r\n    }\r\n\r\n    function updateEmployee\r\n                                (\r\n                                    string id,\r\n                                    uint256 sales,\r\n                                    uint256 bonus\r\n\r\n                                )\r\n                                external\r\n    {\r\n        require(employees[id].isRegistered, \"Employee is not registered.\");\r\n\r\n        employees[id].sales = employees[id].sales.add(sales);\r\n        employees[id].bonus = employees[id].bonus.add(bonus);\r\n\r\n    }\r\n\r\n    \r\n    \r\n\r\n\r\n}",
  "sourcePath": "C:\\udacity projects\\BCND-C6-Exercises\\contracts\\ExerciseC6C.sol",
  "compiler": {
    "name": "solc",
    "version": "0.4.24+commit.e67f0147.Emscripten.clang"
  },
  "schemaVersion": "2.0.1",
  "updatedAt": "2022-03-11T05:04:58.327Z"
}